{
  "contractName": "MinToken",
  "abi": [
    {
      "inputs": [
        {
          "internalType": "string",
          "name": "_name",
          "type": "string"
        },
        {
          "internalType": "string",
          "name": "_symbol",
          "type": "string"
        }
      ],
      "stateMutability": "nonpayable",
      "type": "constructor"
    },
    {
      "anonymous": false,
      "inputs": [
        {
          "indexed": true,
          "internalType": "address",
          "name": "owner",
          "type": "address"
        },
        {
          "indexed": true,
          "internalType": "address",
          "name": "approved",
          "type": "address"
        },
        {
          "indexed": true,
          "internalType": "uint256",
          "name": "tokenId",
          "type": "uint256"
        }
      ],
      "name": "Approval",
      "type": "event"
    },
    {
      "anonymous": false,
      "inputs": [
        {
          "indexed": true,
          "internalType": "address",
          "name": "owner",
          "type": "address"
        },
        {
          "indexed": true,
          "internalType": "address",
          "name": "operator",
          "type": "address"
        },
        {
          "indexed": false,
          "internalType": "bool",
          "name": "approved",
          "type": "bool"
        }
      ],
      "name": "ApprovalForAll",
      "type": "event"
    },
    {
      "anonymous": false,
      "inputs": [
        {
          "indexed": true,
          "internalType": "address",
          "name": "owner",
          "type": "address"
        },
        {
          "indexed": false,
          "internalType": "uint256",
          "name": "id",
          "type": "uint256"
        },
        {
          "indexed": false,
          "internalType": "uint256",
          "name": "dna",
          "type": "uint256"
        }
      ],
      "name": "NewMin",
      "type": "event"
    },
    {
      "anonymous": false,
      "inputs": [
        {
          "indexed": true,
          "internalType": "address",
          "name": "previousOwner",
          "type": "address"
        },
        {
          "indexed": true,
          "internalType": "address",
          "name": "newOwner",
          "type": "address"
        }
      ],
      "name": "OwnershipTransferred",
      "type": "event"
    },
    {
      "anonymous": false,
      "inputs": [
        {
          "indexed": true,
          "internalType": "address",
          "name": "from",
          "type": "address"
        },
        {
          "indexed": true,
          "internalType": "address",
          "name": "to",
          "type": "address"
        },
        {
          "indexed": true,
          "internalType": "uint256",
          "name": "tokenId",
          "type": "uint256"
        }
      ],
      "name": "Transfer",
      "type": "event"
    },
    {
      "inputs": [
        {
          "internalType": "address",
          "name": "to",
          "type": "address"
        },
        {
          "internalType": "uint256",
          "name": "tokenId",
          "type": "uint256"
        }
      ],
      "name": "approve",
      "outputs": [],
      "stateMutability": "nonpayable",
      "type": "function"
    },
    {
      "inputs": [
        {
          "internalType": "address",
          "name": "owner",
          "type": "address"
        }
      ],
      "name": "balanceOf",
      "outputs": [
        {
          "internalType": "uint256",
          "name": "",
          "type": "uint256"
        }
      ],
      "stateMutability": "view",
      "type": "function",
      "constant": true
    },
    {
      "inputs": [
        {
          "internalType": "uint256",
          "name": "tokenId",
          "type": "uint256"
        }
      ],
      "name": "getApproved",
      "outputs": [
        {
          "internalType": "address",
          "name": "",
          "type": "address"
        }
      ],
      "stateMutability": "view",
      "type": "function",
      "constant": true
    },
    {
      "inputs": [
        {
          "internalType": "address",
          "name": "owner",
          "type": "address"
        },
        {
          "internalType": "address",
          "name": "operator",
          "type": "address"
        }
      ],
      "name": "isApprovedForAll",
      "outputs": [
        {
          "internalType": "bool",
          "name": "",
          "type": "bool"
        }
      ],
      "stateMutability": "view",
      "type": "function",
      "constant": true
    },
    {
      "inputs": [
        {
          "internalType": "uint256",
          "name": "",
          "type": "uint256"
        }
      ],
      "name": "mins",
      "outputs": [
        {
          "internalType": "string",
          "name": "name",
          "type": "string"
        },
        {
          "internalType": "uint256",
          "name": "id",
          "type": "uint256"
        },
        {
          "internalType": "uint256",
          "name": "dna",
          "type": "uint256"
        },
        {
          "internalType": "uint8",
          "name": "level",
          "type": "uint8"
        },
        {
          "internalType": "uint8",
          "name": "rarity",
          "type": "uint8"
        }
      ],
      "stateMutability": "view",
      "type": "function",
      "constant": true
    },
    {
      "inputs": [],
      "name": "name",
      "outputs": [
        {
          "internalType": "string",
          "name": "",
          "type": "string"
        }
      ],
      "stateMutability": "view",
      "type": "function",
      "constant": true
    },
    {
      "inputs": [],
      "name": "owner",
      "outputs": [
        {
          "internalType": "address",
          "name": "",
          "type": "address"
        }
      ],
      "stateMutability": "view",
      "type": "function",
      "constant": true
    },
    {
      "inputs": [
        {
          "internalType": "uint256",
          "name": "tokenId",
          "type": "uint256"
        }
      ],
      "name": "ownerOf",
      "outputs": [
        {
          "internalType": "address",
          "name": "",
          "type": "address"
        }
      ],
      "stateMutability": "view",
      "type": "function",
      "constant": true
    },
    {
      "inputs": [],
      "name": "renounceOwnership",
      "outputs": [],
      "stateMutability": "nonpayable",
      "type": "function"
    },
    {
      "inputs": [
        {
          "internalType": "address",
          "name": "from",
          "type": "address"
        },
        {
          "internalType": "address",
          "name": "to",
          "type": "address"
        },
        {
          "internalType": "uint256",
          "name": "tokenId",
          "type": "uint256"
        }
      ],
      "name": "safeTransferFrom",
      "outputs": [],
      "stateMutability": "nonpayable",
      "type": "function"
    },
    {
      "inputs": [
        {
          "internalType": "address",
          "name": "from",
          "type": "address"
        },
        {
          "internalType": "address",
          "name": "to",
          "type": "address"
        },
        {
          "internalType": "uint256",
          "name": "tokenId",
          "type": "uint256"
        },
        {
          "internalType": "bytes",
          "name": "_data",
          "type": "bytes"
        }
      ],
      "name": "safeTransferFrom",
      "outputs": [],
      "stateMutability": "nonpayable",
      "type": "function"
    },
    {
      "inputs": [
        {
          "internalType": "address",
          "name": "operator",
          "type": "address"
        },
        {
          "internalType": "bool",
          "name": "approved",
          "type": "bool"
        }
      ],
      "name": "setApprovalForAll",
      "outputs": [],
      "stateMutability": "nonpayable",
      "type": "function"
    },
    {
      "inputs": [
        {
          "internalType": "bytes4",
          "name": "interfaceId",
          "type": "bytes4"
        }
      ],
      "name": "supportsInterface",
      "outputs": [
        {
          "internalType": "bool",
          "name": "",
          "type": "bool"
        }
      ],
      "stateMutability": "view",
      "type": "function",
      "constant": true
    },
    {
      "inputs": [],
      "name": "symbol",
      "outputs": [
        {
          "internalType": "string",
          "name": "",
          "type": "string"
        }
      ],
      "stateMutability": "view",
      "type": "function",
      "constant": true
    },
    {
      "inputs": [
        {
          "internalType": "uint256",
          "name": "tokenId",
          "type": "uint256"
        }
      ],
      "name": "tokenURI",
      "outputs": [
        {
          "internalType": "string",
          "name": "",
          "type": "string"
        }
      ],
      "stateMutability": "view",
      "type": "function",
      "constant": true
    },
    {
      "inputs": [
        {
          "internalType": "address",
          "name": "from",
          "type": "address"
        },
        {
          "internalType": "address",
          "name": "to",
          "type": "address"
        },
        {
          "internalType": "uint256",
          "name": "tokenId",
          "type": "uint256"
        }
      ],
      "name": "transferFrom",
      "outputs": [],
      "stateMutability": "nonpayable",
      "type": "function"
    },
    {
      "inputs": [
        {
          "internalType": "address",
          "name": "newOwner",
          "type": "address"
        }
      ],
      "name": "transferOwnership",
      "outputs": [],
      "stateMutability": "nonpayable",
      "type": "function"
    },
    {
      "inputs": [
        {
          "internalType": "uint256",
          "name": "_fee",
          "type": "uint256"
        }
      ],
      "name": "updateFee",
      "outputs": [],
      "stateMutability": "nonpayable",
      "type": "function"
    },
    {
      "inputs": [],
      "name": "withdraw",
      "outputs": [],
      "stateMutability": "payable",
      "type": "function",
      "payable": true
    },
    {
      "inputs": [
        {
          "internalType": "string",
          "name": "_name",
          "type": "string"
        }
      ],
      "name": "createRandomMin",
      "outputs": [],
      "stateMutability": "payable",
      "type": "function",
      "payable": true
    },
    {
      "inputs": [],
      "name": "getMins",
      "outputs": [
        {
          "components": [
            {
              "internalType": "string",
              "name": "name",
              "type": "string"
            },
            {
              "internalType": "uint256",
              "name": "id",
              "type": "uint256"
            },
            {
              "internalType": "uint256",
              "name": "dna",
              "type": "uint256"
            },
            {
              "internalType": "uint8",
              "name": "level",
              "type": "uint8"
            },
            {
              "internalType": "uint8",
              "name": "rarity",
              "type": "uint8"
            }
          ],
          "internalType": "struct MinToken.Min[]",
          "name": "",
          "type": "tuple[]"
        }
      ],
      "stateMutability": "view",
      "type": "function",
      "constant": true
    },
    {
      "inputs": [
        {
          "internalType": "address",
          "name": "_owner",
          "type": "address"
        }
      ],
      "name": "getOwnerMins",
      "outputs": [
        {
          "components": [
            {
              "internalType": "string",
              "name": "name",
              "type": "string"
            },
            {
              "internalType": "uint256",
              "name": "id",
              "type": "uint256"
            },
            {
              "internalType": "uint256",
              "name": "dna",
              "type": "uint256"
            },
            {
              "internalType": "uint8",
              "name": "level",
              "type": "uint8"
            },
            {
              "internalType": "uint8",
              "name": "rarity",
              "type": "uint8"
            }
          ],
          "internalType": "struct MinToken.Min[]",
          "name": "",
          "type": "tuple[]"
        }
      ],
      "stateMutability": "view",
      "type": "function",
      "constant": true
    },
    {
      "inputs": [
        {
          "internalType": "uint256",
          "name": "_minId",
          "type": "uint256"
        }
      ],
      "name": "levelUp",
      "outputs": [],
      "stateMutability": "nonpayable",
      "type": "function"
    }
  ],
  "bytecode": "0x6080604052662386f26fc100006008553480156200001c57600080fd5b50604051620024a1380380620024a18339810160408190526200003f9162000242565b81518290829062000058906000906020850190620000e9565b5080516200006e906001906020840190620000e9565b5050506200008b620000856200009360201b60201c565b62000097565b5050620002fc565b3390565b600680546001600160a01b038381166001600160a01b0319831681179093556040519116919082907f8be0079c531659141344cd1fd0a4f28419497f9722a3daafe3b4186f6b6457e090600090a35050565b828054620000f790620002a9565b90600052602060002090601f0160209004810192826200011b576000855562000166565b82601f106200013657805160ff191683800117855562000166565b8280016001018555821562000166579182015b828111156200016657825182559160200191906001019062000149565b506200017492915062000178565b5090565b5b8082111562000174576000815560010162000179565b600082601f830112620001a0578081fd5b81516001600160401b0380821115620001bd57620001bd620002e6565b604051601f8301601f19908116603f01168101908282118183101715620001e857620001e8620002e6565b8160405283815260209250868385880101111562000204578485fd5b8491505b8382101562000227578582018301518183018401529082019062000208565b838211156200023857848385830101525b9695505050505050565b6000806040838503121562000255578182fd5b82516001600160401b03808211156200026c578384fd5b6200027a868387016200018f565b9350602085015191508082111562000290578283fd5b506200029f858286016200018f565b9150509250929050565b600281046001821680620002be57607f821691505b60208210811415620002e057634e487b7160e01b600052602260045260246000fd5b50919050565b634e487b7160e01b600052604160045260246000fd5b612195806200030c6000396000f3fe6080604052600436106101405760003560e01c8063656163f1116100b6578063a22cb4651161006f578063a22cb46514610373578063a326e13714610393578063b88d4fde146103a6578063c87b56dd146103c6578063e985e9c5146103e6578063f2fde38b1461040657610140565b8063656163f1146102c757806370a08231146102e7578063715018a6146103145780638da5cb5b146103295780639012c4a81461033e57806395d89b411461035e57610140565b80630ce90ec2116101085780630ce90ec21461020e5780631c7e0f521461022e57806323b872dd1461025f5780633ccfd60b1461027f57806342842e0e146102875780636352211e146102a757610140565b806301ffc9a71461014557806306fdde031461017b578063081812fc1461019d578063095ea7b3146101ca5780630b5ca9d7146101ec575b600080fd5b34801561015157600080fd5b50610165610160366004611940565b610426565b6040516101729190611b3d565b60405180910390f35b34801561018757600080fd5b5061019061046e565b6040516101729190611b48565b3480156101a957600080fd5b506101bd6101b83660046119be565b610500565b6040516101729190611a51565b3480156101d657600080fd5b506101ea6101e5366004611917565b61054c565b005b3480156101f857600080fd5b506102016105e4565b6040516101729190611aa2565b34801561021a57600080fd5b506101ea6102293660046119be565b61070a565b34801561023a57600080fd5b5061024e6102493660046119be565b61078f565b604051610172959493929190611b5b565b34801561026b57600080fd5b506101ea61027a366004611829565b610865565b6101ea61089d565b34801561029357600080fd5b506101ea6102a2366004611829565b610922565b3480156102b357600080fd5b506101bd6102c23660046119be565b61093d565b3480156102d357600080fd5b506102016102e23660046117dd565b610972565b3480156102f357600080fd5b506103076103023660046117dd565b610b64565b6040516101729190611ff7565b34801561032057600080fd5b506101ea610ba8565b34801561033557600080fd5b506101bd610bf3565b34801561034a57600080fd5b506101ea6103593660046119be565b610c02565b34801561036a57600080fd5b50610190610c46565b34801561037f57600080fd5b506101ea61038e3660046118dd565b610c55565b6101ea6103a1366004611978565b610c67565b3480156103b257600080fd5b506101ea6103c1366004611864565b610c82565b3480156103d257600080fd5b506101906103e13660046119be565b610cc1565b3480156103f257600080fd5b506101656104013660046117f7565b610d44565b34801561041257600080fd5b506101ea6104213660046117dd565b610d72565b60006001600160e01b031982166380ac58cd60e01b148061045757506001600160e01b03198216635b5e139f60e01b145b80610466575061046682610de0565b90505b919050565b60606000805461047d9061207d565b80601f01602080910402602001604051908101604052809291908181526020018280546104a99061207d565b80156104f65780601f106104cb576101008083540402835291602001916104f6565b820191906000526020600020905b8154815290600101906020018083116104d957829003601f168201915b5050505050905090565b600061050b82610df9565b6105305760405162461bcd60e51b815260040161052790611e95565b60405180910390fd5b506000908152600460205260409020546001600160a01b031690565b60006105578261093d565b9050806001600160a01b0316836001600160a01b0316141561058b5760405162461bcd60e51b815260040161052790611f65565b806001600160a01b031661059d610e16565b6001600160a01b031614806105b957506105b981610401610e16565b6105d55760405162461bcd60e51b815260040161052790611d70565b6105df8383610e1a565b505050565b60606009805480602002602001604051908101604052809291908181526020016000905b8282101561070157838290600052602060002090600402016040518060a001604052908160008201805461063b9061207d565b80601f01602080910402602001604051908101604052809291908181526020018280546106679061207d565b80156106b45780601f10610689576101008083540402835291602001916106b4565b820191906000526020600020905b81548152906001019060200180831161069757829003601f168201915b50505091835250506001828101546020808401919091526002840154604084015260039093015460ff80821660608501526101009091041660809092019190915291835292019101610608565b50505050905090565b336107148261093d565b6001600160a01b03161461072757600080fd5b60006009828154811061074a57634e487b7160e01b600052603260045260246000fd5b6000918252602082206003600490920201908101805491935060ff90911691610772836120d3565b91906101000a81548160ff021916908360ff160217905550505050565b6009818154811061079f57600080fd5b90600052602060002090600402016000915090508060000180546107c29061207d565b80601f01602080910402602001604051908101604052809291908181526020018280546107ee9061207d565b801561083b5780601f106108105761010080835404028352916020019161083b565b820191906000526020600020905b81548152906001019060200180831161081e57829003601f168201915b50505050600183015460028401546003909401549293909290915060ff8082169161010090041685565b610876610870610e16565b82610e88565b6108925760405162461bcd60e51b815260040161052790611fa6565b6105df838383610f0d565b6108a5610e16565b6001600160a01b03166108b6610bf3565b6001600160a01b0316146108dc5760405162461bcd60e51b815260040161052790611ee1565b60006108e6610bf3565b6040519091506001600160a01b038216904780156108fc02916000818181858888f1935050505015801561091e573d6000803e3d6000fd5b5050565b6105df83838360405180602001604052806000815250610c82565b6000818152600260205260408120546001600160a01b0316806104665760405162461bcd60e51b815260040161052790611e17565b6060600061097f83610b64565b67ffffffffffffffff8111156109a557634e487b7160e01b600052604160045260246000fd5b6040519080825280602002602001820160405280156109de57816020015b6109cb611682565b8152602001906001900390816109c35790505b5090506000805b600954811015610b5b57846001600160a01b0316610a028261093d565b6001600160a01b03161415610b495760098181548110610a3257634e487b7160e01b600052603260045260246000fd5b90600052602060002090600402016040518060a0016040529081600082018054610a5b9061207d565b80601f0160208091040260200160405190810160405280929190818152602001828054610a879061207d565b8015610ad45780601f10610aa957610100808354040283529160200191610ad4565b820191906000526020600020905b815481529060010190602001808311610ab757829003601f168201915b5050509183525050600182015460208201526002820154604082015260039091015460ff8082166060840152610100909104166080909101528351849084908110610b2f57634e487b7160e01b600052603260045260246000fd5b60200260200101819052508180610b45906120b8565b9250505b80610b53816120b8565b9150506109e5565b50909392505050565b60006001600160a01b038216610b8c5760405162461bcd60e51b815260040161052790611dcd565b506001600160a01b031660009081526003602052604090205490565b610bb0610e16565b6001600160a01b0316610bc1610bf3565b6001600160a01b031614610be75760405162461bcd60e51b815260040161052790611ee1565b610bf16000611040565b565b6006546001600160a01b031690565b610c0a610e16565b6001600160a01b0316610c1b610bf3565b6001600160a01b031614610c415760405162461bcd60e51b815260040161052790611ee1565b600855565b60606001805461047d9061207d565b61091e610c60610e16565b8383611092565b600854341015610c7657600080fd5b610c7f81611135565b50565b610c93610c8d610e16565b83610e88565b610caf5760405162461bcd60e51b815260040161052790611fa6565b610cbb8484848461128a565b50505050565b6060610ccc82610df9565b610ce85760405162461bcd60e51b815260040161052790611f16565b6000610cf26112bd565b90506000815111610d125760405180602001604052806000815250610d3d565b80610d1c846112cf565b604051602001610d2d929190611a02565b6040516020818303038152906040525b9392505050565b6001600160a01b03918216600090815260056020908152604080832093909416825291909152205460ff1690565b610d7a610e16565b6001600160a01b0316610d8b610bf3565b6001600160a01b031614610db15760405162461bcd60e51b815260040161052790611ee1565b6001600160a01b038116610dd75760405162461bcd60e51b815260040161052790611be7565b610c7f81611040565b6001600160e01b031981166301ffc9a760e01b14919050565b6000908152600260205260409020546001600160a01b0316151590565b3390565b600081815260046020526040902080546001600160a01b0319166001600160a01b0384169081179091558190610e4f8261093d565b6001600160a01b03167f8c5be1e5ebec7d5bd14f71427d1e84f3dd0314c0f7b2291e5b200ac8c7c3b92560405160405180910390a45050565b6000610e9382610df9565b610eaf5760405162461bcd60e51b815260040161052790611d24565b6000610eba8361093d565b9050806001600160a01b0316846001600160a01b03161480610ef55750836001600160a01b0316610eea84610500565b6001600160a01b0316145b80610f055750610f058185610d44565b949350505050565b826001600160a01b0316610f208261093d565b6001600160a01b031614610f465760405162461bcd60e51b815260040161052790611c2d565b6001600160a01b038216610f6c5760405162461bcd60e51b815260040161052790611ca9565b610f778383836105df565b610f82600082610e1a565b6001600160a01b0383166000908152600360205260408120805460019290610fab90849061203a565b90915550506001600160a01b0382166000908152600360205260408120805460019290610fd990849061200e565b909155505060008181526002602052604080822080546001600160a01b0319166001600160a01b0386811691821790925591518493918716917fddf252ad1be2c89b69c2b068fc378daa952ba7f163c4a11628f55a4df523b3ef91a46105df8383836105df565b600680546001600160a01b038381166001600160a01b0319831681179093556040519116919082907f8be0079c531659141344cd1fd0a4f28419497f9722a3daafe3b4186f6b6457e090600090a35050565b816001600160a01b0316836001600160a01b031614156110c45760405162461bcd60e51b815260040161052790611ced565b6001600160a01b0383811660008181526005602090815260408083209487168084529490915290819020805460ff1916851515179055517f17307eab39ab6107e8899845ad3d59bd9653f200f220920489ca2b5937696c3190611128908590611b3d565b60405180910390a3505050565b600061114160646113ea565b90506000611155662386f26fc100006113ea565b6040805160a08101825285815260075460208083019190915291810183905260016060820181905260ff86166080830152600980549182018155600052815180519495509193849360049092027f6e1540171b6c0c960b71a7020d9f60077f6af931a8bbf590da0223dacf75c7af01926111d39284929101906116b7565b50602082015160018201556040820151600282015560608201516003909101805460809093015160ff9081166101000261ff00199190931660ff19909416939093179290921617905560075461122a903390611424565b336001600160a01b03167f6448e46ddcb56ee8753eb7bc86c336183c8277d45e35722685642802d026323160075484604051611267929190612000565b60405180910390a26007805490600061127f836120b8565b919050555050505050565b611295848484610f0d565b6112a18484848461143e565b610cbb5760405162461bcd60e51b815260040161052790611b95565b60408051602081019091526000815290565b6060816112f457506040805180820190915260018152600360fc1b6020820152610469565b8160005b811561131e5780611308816120b8565b91506113179050600a83612026565b91506112f8565b60008167ffffffffffffffff81111561134757634e487b7160e01b600052604160045260246000fd5b6040519080825280601f01601f191660200182016040528015611371576020820181803683370190505b5090505b8415610f055761138660018361203a565b9150611393600a866120f3565b61139e90603061200e565b60f81b8183815181106113c157634e487b7160e01b600052603260045260246000fd5b60200101906001600160f81b031916908160001a9053506113e3600a86612026565b9450611375565b6000804233604051602001611400929190611a31565b60408051601f1981840301815291905280516020909101209050610d3d83826120f3565b61091e828260405180602001604052806000815250611559565b6000611452846001600160a01b031661158c565b1561154e57836001600160a01b031663150b7a0261146e610e16565b8786866040518563ffffffff1660e01b81526004016114909493929190611a65565b602060405180830381600087803b1580156114aa57600080fd5b505af19250505080156114da575060408051601f3d908101601f191682019092526114d79181019061195c565b60015b611534573d808015611508576040519150601f19603f3d011682016040523d82523d6000602084013e61150d565b606091505b50805161152c5760405162461bcd60e51b815260040161052790611b95565b805181602001fd5b6001600160e01b031916630a85bd0160e11b149050610f05565b506001949350505050565b611563838361159b565b611570600084848461143e565b6105df5760405162461bcd60e51b815260040161052790611b95565b6001600160a01b03163b151590565b6001600160a01b0382166115c15760405162461bcd60e51b815260040161052790611e60565b6115ca81610df9565b156115e75760405162461bcd60e51b815260040161052790611c72565b6115f3600083836105df565b6001600160a01b038216600090815260036020526040812080546001929061161c90849061200e565b909155505060008181526002602052604080822080546001600160a01b0319166001600160a01b03861690811790915590518392907fddf252ad1be2c89b69c2b068fc378daa952ba7f163c4a11628f55a4df523b3ef908290a461091e600083836105df565b6040518060a00160405280606081526020016000815260200160008152602001600060ff168152602001600060ff1681525090565b8280546116c39061207d565b90600052602060002090601f0160209004810192826116e5576000855561172b565b82601f106116fe57805160ff191683800117855561172b565b8280016001018555821561172b579182015b8281111561172b578251825591602001919060010190611710565b5061173792915061173b565b5090565b5b80821115611737576000815560010161173c565b600067ffffffffffffffff8084111561176b5761176b612133565b604051601f8501601f19908116603f0116810190828211818310171561179357611793612133565b816040528093508581528686860111156117ac57600080fd5b858560208301376000602087830101525050509392505050565b80356001600160a01b038116811461046957600080fd5b6000602082840312156117ee578081fd5b610d3d826117c6565b60008060408385031215611809578081fd5b611812836117c6565b9150611820602084016117c6565b90509250929050565b60008060006060848603121561183d578081fd5b611846846117c6565b9250611854602085016117c6565b9150604084013590509250925092565b60008060008060808587031215611879578081fd5b611882856117c6565b9350611890602086016117c6565b925060408501359150606085013567ffffffffffffffff8111156118b2578182fd5b8501601f810187136118c2578182fd5b6118d187823560208401611750565b91505092959194509250565b600080604083850312156118ef578182fd5b6118f8836117c6565b91506020830135801515811461190c578182fd5b809150509250929050565b60008060408385031215611929578182fd5b611932836117c6565b946020939093013593505050565b600060208284031215611951578081fd5b8135610d3d81612149565b60006020828403121561196d578081fd5b8151610d3d81612149565b600060208284031215611989578081fd5b813567ffffffffffffffff81111561199f578182fd5b8201601f810184136119af578182fd5b610f0584823560208401611750565b6000602082840312156119cf578081fd5b5035919050565b600081518084526119ee816020860160208601612051565b601f01601f19169290920160200192915050565b60008351611a14818460208801612051565b835190830190611a28818360208801612051565b01949350505050565b91825260601b6bffffffffffffffffffffffff1916602082015260340190565b6001600160a01b0391909116815260200190565b6001600160a01b0385811682528416602082015260408101839052608060608201819052600090611a98908301846119d6565b9695505050505050565b60208082528251828201819052600091906040908185019080840286018301878501865b83811015611b2f57603f19898403018552815160a08151818652611aec828701826119d6565b838b0151878c0152898401518a88015260608085015160ff9081169189019190915260809485015116939096019290925250509386019390860190600101611ac6565b509098975050505050505050565b901515815260200190565b600060208252610d3d60208301846119d6565b600060a08252611b6e60a08301886119d6565b602083019690965250604081019390935260ff918216606084015216608090910152919050565b60208082526032908201527f4552433732313a207472616e7366657220746f206e6f6e20455243373231526560408201527131b2b4bb32b91034b6b83632b6b2b73a32b960711b606082015260800190565b60208082526026908201527f4f776e61626c653a206e6577206f776e657220697320746865207a65726f206160408201526564647265737360d01b606082015260800190565b60208082526025908201527f4552433732313a207472616e736665722066726f6d20696e636f72726563742060408201526437bbb732b960d91b606082015260800190565b6020808252601c908201527f4552433732313a20746f6b656e20616c7265616479206d696e74656400000000604082015260600190565b60208082526024908201527f4552433732313a207472616e7366657220746f20746865207a65726f206164646040820152637265737360e01b606082015260800190565b60208082526019908201527f4552433732313a20617070726f766520746f2063616c6c657200000000000000604082015260600190565b6020808252602c908201527f4552433732313a206f70657261746f7220717565727920666f72206e6f6e657860408201526b34b9ba32b73a103a37b5b2b760a11b606082015260800190565b60208082526038908201527f4552433732313a20617070726f76652063616c6c6572206973206e6f74206f7760408201527f6e6572206e6f7220617070726f76656420666f7220616c6c0000000000000000606082015260800190565b6020808252602a908201527f4552433732313a2062616c616e636520717565727920666f7220746865207a65604082015269726f206164647265737360b01b606082015260800190565b60208082526029908201527f4552433732313a206f776e657220717565727920666f72206e6f6e657869737460408201526832b73a103a37b5b2b760b91b606082015260800190565b6020808252818101527f4552433732313a206d696e7420746f20746865207a65726f2061646472657373604082015260600190565b6020808252602c908201527f4552433732313a20617070726f76656420717565727920666f72206e6f6e657860408201526b34b9ba32b73a103a37b5b2b760a11b606082015260800190565b6020808252818101527f4f776e61626c653a2063616c6c6572206973206e6f7420746865206f776e6572604082015260600190565b6020808252602f908201527f4552433732314d657461646174613a2055524920717565727920666f72206e6f60408201526e3732bc34b9ba32b73a103a37b5b2b760891b606082015260800190565b60208082526021908201527f4552433732313a20617070726f76616c20746f2063757272656e74206f776e656040820152603960f91b606082015260800190565b60208082526031908201527f4552433732313a207472616e736665722063616c6c6572206973206e6f74206f6040820152701ddb995c881b9bdc88185c1c1c9bdd9959607a1b606082015260800190565b90815260200190565b918252602082015260400190565b6000821982111561202157612021612107565b500190565b6000826120355761203561211d565b500490565b60008282101561204c5761204c612107565b500390565b60005b8381101561206c578181015183820152602001612054565b83811115610cbb5750506000910152565b60028104600182168061209157607f821691505b602082108114156120b257634e487b7160e01b600052602260045260246000fd5b50919050565b60006000198214156120cc576120cc612107565b5060010190565b600060ff821660ff8114156120ea576120ea612107565b60010192915050565b6000826121025761210261211d565b500690565b634e487b7160e01b600052601160045260246000fd5b634e487b7160e01b600052601260045260246000fd5b634e487b7160e01b600052604160045260246000fd5b6001600160e01b031981168114610c7f57600080fdfea26469706673582212208da5522f13c7d7e8c1e1dc34f1f49d0ebd93e95f36a4028f13d55c138bcdb7b764736f6c63430008010033",
  "immutableReferences": {},
  "source": "// SPDX-License-Identifier: GPL-3.0\r\n\r\npragma solidity ^0.8.0;\r\n\r\nimport \"@openzeppelin/contracts/token/ERC721/ERC721.sol\";\r\nimport \"@openzeppelin/contracts/access/Ownable.sol\";\r\n\r\ncontract MinToken is ERC721, Ownable{\r\n    constructor(string memory _name, string memory _symbol)\r\n    ERC721(_name,_symbol)\r\n    {}\r\n    uint256 COUNTER;\r\n\r\n    uint256 fee = 0.01 ether;\r\n    \r\n    struct Min{\r\n        //\r\n        string name;\r\n        uint256 id;\r\n        uint256 dna;\r\n        uint8 level;\r\n        uint8 rarity;\r\n    }\r\n\r\n    Min[] public mins;\r\n\r\n    event NewMin(address indexed owner,uint256 id, uint256 dna); \r\n\r\n    // Helpers\r\n    // pure :       \r\n    function _createRandomNum(uint256 _mod) internal view returns(uint256){\r\n        uint256 randomNum = uint256(keccak256(abi.encodePacked(block.timestamp,msg.sender)));\r\n        return randomNum % _mod;\r\n    }\r\n\r\n    // external :    ,   \r\n    function updateFee(uint256 _fee) external onlyOwner() {\r\n        fee = _fee;\r\n    }\r\n\r\n    function withdraw() external payable onlyOwner() { \r\n        address payable _owner = payable(owner());\r\n        _owner.transfer(address (this).balance);\r\n    }\r\n\r\n\r\n    // Creation\r\n    // modifier onlyOwner() \r\n    // internal :    \r\n    function _createMin(string memory _name) internal {\r\n        uint8 randRarity = uint8 (_createRandomNum(100)); //0~99, 1~100\r\n        uint256 randDna = _createRandomNum(10**16);\r\n\r\n        // ?\r\n        Min memory newMin = Min(_name,COUNTER,randDna,1,randRarity);\r\n        mins.push(newMin);\r\n        _safeMint(msg.sender,COUNTER);\r\n\r\n        emit NewMin(msg.sender,COUNTER,randDna);\r\n        \r\n        COUNTER++;\r\n    }\r\n\r\n    function createRandomMin(string memory _name) public payable {\r\n        require(msg.value >= fee);//, \"The fee is not correct.\");\r\n        _createMin(_name);\r\n    }\r\n\r\n\r\n    // Getters\r\n    function getMins() public view returns(Min[] memory){\r\n        return mins;\r\n    }\r\n\r\n    function getOwnerMins(address _owner) public view returns(Min[] memory){\r\n        Min[] memory result = new Min[](balanceOf(_owner));\r\n        uint256 counter = 0;\r\n        for(uint256 i = 0; i < mins.length; i++){\r\n            if(ownerOf(i) == _owner){\r\n                result[counter] = mins[i];\r\n                counter++;\r\n            }\r\n        }\r\n        return result;\r\n    }\r\n\r\n    // Actions\r\n    function levelUp(uint256 _minId) public {\r\n        require(ownerOf(_minId) == msg.sender);\r\n        // memory , level   .\r\n        Min storage min = mins[_minId];\r\n        min.level++;\r\n\r\n        // //memory \r\n        // Min memory min = mins[_minId];\r\n        // min.level++;\r\n        // mins[_minId] = min;\r\n    }\r\n\r\n\r\n}\r\n",
  "sourcePath": "C:\\Users\\coco\\Desktop\\coco\\nft-game\\contracts\\MinToken.sol",
  "compiler": {
    "name": "solc",
    "version": "0.8.1+commit.df193b15.Emscripten.clang"
  },
  "schemaVersion": "3.4.4",
  "updatedAt": "2022-03-08T12:26:22.114Z",
  "networkType": "ethereum",
  "devdoc": {
    "kind": "dev",
    "methods": {
      "approve(address,uint256)": {
        "details": "See {IERC721-approve}."
      },
      "balanceOf(address)": {
        "details": "See {IERC721-balanceOf}."
      },
      "getApproved(uint256)": {
        "details": "See {IERC721-getApproved}."
      },
      "isApprovedForAll(address,address)": {
        "details": "See {IERC721-isApprovedForAll}."
      },
      "name()": {
        "details": "See {IERC721Metadata-name}."
      },
      "owner()": {
        "details": "Returns the address of the current owner."
      },
      "ownerOf(uint256)": {
        "details": "See {IERC721-ownerOf}."
      },
      "renounceOwnership()": {
        "details": "Leaves the contract without owner. It will not be possible to call `onlyOwner` functions anymore. Can only be called by the current owner. NOTE: Renouncing ownership will leave the contract without an owner, thereby removing any functionality that is only available to the owner."
      },
      "safeTransferFrom(address,address,uint256)": {
        "details": "See {IERC721-safeTransferFrom}."
      },
      "safeTransferFrom(address,address,uint256,bytes)": {
        "details": "See {IERC721-safeTransferFrom}."
      },
      "setApprovalForAll(address,bool)": {
        "details": "See {IERC721-setApprovalForAll}."
      },
      "supportsInterface(bytes4)": {
        "details": "See {IERC165-supportsInterface}."
      },
      "symbol()": {
        "details": "See {IERC721Metadata-symbol}."
      },
      "tokenURI(uint256)": {
        "details": "See {IERC721Metadata-tokenURI}."
      },
      "transferFrom(address,address,uint256)": {
        "details": "See {IERC721-transferFrom}."
      },
      "transferOwnership(address)": {
        "details": "Transfers ownership of the contract to a new account (`newOwner`). Can only be called by the current owner."
      }
    },
    "version": 1
  },
  "userdoc": {
    "kind": "user",
    "methods": {},
    "version": 1
  }
}